{
  "_format": "hh-sol-artifact-1",
  "contractName": "DCAPoolFactory",
  "sourceName": "contracts/DCAPoolFactory.sol",
  "abi": [
    {
      "inputs": [
        {
          "internalType": "contract IDCAPoolRegister",
          "name": "poolRegister",
          "type": "address"
        },
        {
          "internalType": "contract DCAAccessControl",
          "name": "scheduler",
          "type": "address"
        },
        {
          "internalType": "address",
          "name": "weth",
          "type": "address"
        }
      ],
      "stateMutability": "nonpayable",
      "type": "constructor"
    },
    {
      "anonymous": false,
      "inputs": [
        {
          "indexed": false,
          "internalType": "address",
          "name": "token",
          "type": "address"
        }
      ],
      "name": "BaseTokenEnabled",
      "type": "event"
    },
    {
      "anonymous": false,
      "inputs": [
        {
          "indexed": false,
          "internalType": "address",
          "name": "token",
          "type": "address"
        }
      ],
      "name": "OrderTokenEnabled",
      "type": "event"
    },
    {
      "anonymous": false,
      "inputs": [
        {
          "indexed": true,
          "internalType": "address",
          "name": "baseToken",
          "type": "address"
        },
        {
          "indexed": true,
          "internalType": "address",
          "name": "orderToken",
          "type": "address"
        },
        {
          "indexed": false,
          "internalType": "enum Types.Period",
          "name": "period",
          "type": "uint8"
        },
        {
          "indexed": false,
          "internalType": "uint256",
          "name": "baseTokenScalingFactor",
          "type": "uint256"
        },
        {
          "indexed": false,
          "internalType": "address",
          "name": "vault",
          "type": "address"
        }
      ],
      "name": "PoolCreated",
      "type": "event"
    },
    {
      "anonymous": false,
      "inputs": [
        {
          "indexed": true,
          "internalType": "bytes32",
          "name": "role",
          "type": "bytes32"
        },
        {
          "indexed": true,
          "internalType": "bytes32",
          "name": "previousAdminRole",
          "type": "bytes32"
        },
        {
          "indexed": true,
          "internalType": "bytes32",
          "name": "newAdminRole",
          "type": "bytes32"
        }
      ],
      "name": "RoleAdminChanged",
      "type": "event"
    },
    {
      "anonymous": false,
      "inputs": [
        {
          "indexed": true,
          "internalType": "bytes32",
          "name": "role",
          "type": "bytes32"
        },
        {
          "indexed": true,
          "internalType": "address",
          "name": "account",
          "type": "address"
        },
        {
          "indexed": true,
          "internalType": "address",
          "name": "sender",
          "type": "address"
        }
      ],
      "name": "RoleGranted",
      "type": "event"
    },
    {
      "anonymous": false,
      "inputs": [
        {
          "indexed": true,
          "internalType": "bytes32",
          "name": "role",
          "type": "bytes32"
        },
        {
          "indexed": true,
          "internalType": "address",
          "name": "account",
          "type": "address"
        },
        {
          "indexed": true,
          "internalType": "address",
          "name": "sender",
          "type": "address"
        }
      ],
      "name": "RoleRevoked",
      "type": "event"
    },
    {
      "inputs": [],
      "name": "DEFAULT_ADMIN_ROLE",
      "outputs": [
        {
          "internalType": "bytes32",
          "name": "",
          "type": "bytes32"
        }
      ],
      "stateMutability": "view",
      "type": "function"
    },
    {
      "inputs": [],
      "name": "EXECUTOR_ROLE",
      "outputs": [
        {
          "internalType": "bytes32",
          "name": "",
          "type": "bytes32"
        }
      ],
      "stateMutability": "view",
      "type": "function"
    },
    {
      "inputs": [],
      "name": "REGISTRAR_ROLE",
      "outputs": [
        {
          "internalType": "bytes32",
          "name": "",
          "type": "bytes32"
        }
      ],
      "stateMutability": "view",
      "type": "function"
    },
    {
      "inputs": [],
      "name": "SCHEDULER_ROLE",
      "outputs": [
        {
          "internalType": "bytes32",
          "name": "",
          "type": "bytes32"
        }
      ],
      "stateMutability": "view",
      "type": "function"
    },
    {
      "inputs": [],
      "name": "TIMELOCK_ROLE",
      "outputs": [
        {
          "internalType": "bytes32",
          "name": "",
          "type": "bytes32"
        }
      ],
      "stateMutability": "view",
      "type": "function"
    },
    {
      "inputs": [],
      "name": "VAULT_ROLE",
      "outputs": [
        {
          "internalType": "bytes32",
          "name": "",
          "type": "bytes32"
        }
      ],
      "stateMutability": "view",
      "type": "function"
    },
    {
      "inputs": [
        {
          "internalType": "address",
          "name": "newAdmin",
          "type": "address"
        }
      ],
      "name": "addAdmin",
      "outputs": [],
      "stateMutability": "nonpayable",
      "type": "function"
    },
    {
      "inputs": [
        {
          "internalType": "address",
          "name": "newExecutor",
          "type": "address"
        }
      ],
      "name": "addExecutor",
      "outputs": [],
      "stateMutability": "nonpayable",
      "type": "function"
    },
    {
      "inputs": [
        {
          "internalType": "address",
          "name": "newRegistrar",
          "type": "address"
        }
      ],
      "name": "addRegistrar",
      "outputs": [],
      "stateMutability": "nonpayable",
      "type": "function"
    },
    {
      "inputs": [
        {
          "internalType": "address",
          "name": "newScheduler",
          "type": "address"
        }
      ],
      "name": "addScheduler",
      "outputs": [],
      "stateMutability": "nonpayable",
      "type": "function"
    },
    {
      "inputs": [
        {
          "internalType": "address",
          "name": "newVault",
          "type": "address"
        }
      ],
      "name": "addVault",
      "outputs": [],
      "stateMutability": "nonpayable",
      "type": "function"
    },
    {
      "inputs": [
        {
          "internalType": "address",
          "name": "baseToken",
          "type": "address"
        },
        {
          "internalType": "address",
          "name": "orderToken",
          "type": "address"
        },
        {
          "internalType": "enum Types.Period",
          "name": "period",
          "type": "uint8"
        },
        {
          "internalType": "uint256",
          "name": "baseTokenScalingFactor",
          "type": "uint256"
        }
      ],
      "name": "createPool",
      "outputs": [
        {
          "internalType": "address",
          "name": "",
          "type": "address"
        }
      ],
      "stateMutability": "nonpayable",
      "type": "function"
    },
    {
      "inputs": [
        {
          "internalType": "address",
          "name": "baseToken",
          "type": "address"
        }
      ],
      "name": "enableBaseToken",
      "outputs": [],
      "stateMutability": "nonpayable",
      "type": "function"
    },
    {
      "inputs": [
        {
          "internalType": "address",
          "name": "orderToken",
          "type": "address"
        }
      ],
      "name": "enableOrderToken",
      "outputs": [],
      "stateMutability": "nonpayable",
      "type": "function"
    },
    {
      "inputs": [
        {
          "internalType": "bytes32",
          "name": "role",
          "type": "bytes32"
        }
      ],
      "name": "getRoleAdmin",
      "outputs": [
        {
          "internalType": "bytes32",
          "name": "",
          "type": "bytes32"
        }
      ],
      "stateMutability": "view",
      "type": "function"
    },
    {
      "inputs": [
        {
          "internalType": "bytes32",
          "name": "role",
          "type": "bytes32"
        },
        {
          "internalType": "uint256",
          "name": "index",
          "type": "uint256"
        }
      ],
      "name": "getRoleMember",
      "outputs": [
        {
          "internalType": "address",
          "name": "",
          "type": "address"
        }
      ],
      "stateMutability": "view",
      "type": "function"
    },
    {
      "inputs": [
        {
          "internalType": "bytes32",
          "name": "role",
          "type": "bytes32"
        }
      ],
      "name": "getRoleMemberCount",
      "outputs": [
        {
          "internalType": "uint256",
          "name": "",
          "type": "uint256"
        }
      ],
      "stateMutability": "view",
      "type": "function"
    },
    {
      "inputs": [
        {
          "internalType": "bytes32",
          "name": "role",
          "type": "bytes32"
        },
        {
          "internalType": "address",
          "name": "account",
          "type": "address"
        }
      ],
      "name": "grantRole",
      "outputs": [],
      "stateMutability": "nonpayable",
      "type": "function"
    },
    {
      "inputs": [
        {
          "internalType": "bytes32",
          "name": "role",
          "type": "bytes32"
        },
        {
          "internalType": "address",
          "name": "account",
          "type": "address"
        }
      ],
      "name": "hasRole",
      "outputs": [
        {
          "internalType": "bool",
          "name": "",
          "type": "bool"
        }
      ],
      "stateMutability": "view",
      "type": "function"
    },
    {
      "inputs": [
        {
          "internalType": "address",
          "name": "admin",
          "type": "address"
        }
      ],
      "name": "removeAdmin",
      "outputs": [],
      "stateMutability": "nonpayable",
      "type": "function"
    },
    {
      "inputs": [
        {
          "internalType": "address",
          "name": "executor",
          "type": "address"
        }
      ],
      "name": "removeExecutor",
      "outputs": [],
      "stateMutability": "nonpayable",
      "type": "function"
    },
    {
      "inputs": [
        {
          "internalType": "address",
          "name": "registrar",
          "type": "address"
        }
      ],
      "name": "removeRegistrar",
      "outputs": [],
      "stateMutability": "nonpayable",
      "type": "function"
    },
    {
      "inputs": [
        {
          "internalType": "address",
          "name": "scheduler",
          "type": "address"
        }
      ],
      "name": "removeScheduler",
      "outputs": [],
      "stateMutability": "nonpayable",
      "type": "function"
    },
    {
      "inputs": [
        {
          "internalType": "address",
          "name": "vault",
          "type": "address"
        }
      ],
      "name": "removeVault",
      "outputs": [],
      "stateMutability": "nonpayable",
      "type": "function"
    },
    {
      "inputs": [
        {
          "internalType": "bytes32",
          "name": "role",
          "type": "bytes32"
        },
        {
          "internalType": "address",
          "name": "account",
          "type": "address"
        }
      ],
      "name": "renounceRole",
      "outputs": [],
      "stateMutability": "nonpayable",
      "type": "function"
    },
    {
      "inputs": [
        {
          "internalType": "bytes32",
          "name": "role",
          "type": "bytes32"
        },
        {
          "internalType": "address",
          "name": "account",
          "type": "address"
        }
      ],
      "name": "revokeRole",
      "outputs": [],
      "stateMutability": "nonpayable",
      "type": "function"
    },
    {
      "inputs": [
        {
          "internalType": "address payable",
          "name": "timelock",
          "type": "address"
        }
      ],
      "name": "setTimelock",
      "outputs": [],
      "stateMutability": "nonpayable",
      "type": "function"
    }
  ],
  "bytecode": "0x60806040526001805460ff191690553480156200001b57600080fd5b50604051620055e3380380620055e38339810160408190526200003e9162000246565b6200005460006200004e6200012c565b62000130565b62000073836001600160a01b03166200014060201b62000fce1760201c565b80156200009a57506200009a826001600160a01b03166200014060201b62000fce1760201c565b8015620000c15750620000c1816001600160a01b03166200014060201b62000fce1760201c565b620000e95760405162461bcd60e51b8152600401620000e09062000299565b60405180910390fd5b600780546001600160a01b039485166001600160a01b031991821617909155600680549385169382169390931790925560088054919093169116179055620002e9565b3390565b6200013c828262000146565b5050565b3b151590565b6000828152602081815260409091206200016b91839062000fd4620001bf821b17901c565b156200013c576200017b6200012c565b6001600160a01b0316816001600160a01b0316837f2f8788117e7eff1d82e926ec794901d17c78024a50270940304540a733656f0d60405160405180910390a45050565b6000620001d6836001600160a01b038416620001df565b90505b92915050565b6000620001ed83836200022e565b6200022557508154600181810184556000848152602080822090930184905584548482528286019093526040902091909155620001d9565b506000620001d9565b60009081526001919091016020526040902054151590565b6000806000606084860312156200025b578283fd5b83516200026881620002d0565b60208501519093506200027b81620002d0565b60408501519092506200028e81620002d0565b809150509250925092565b60208082526016908201527f4443415f464143544f52593a494e49545f4552524f5200000000000000000000604082015260600190565b6001600160a01b0381168114620002e657600080fd5b50565b6152ea80620002f96000396000f3fe60806040523480156200001157600080fd5b5060043610620001d25760003560e01c80638e3630d21162000111578063bdacb30311620000a5578063d068d0a8116200007b578063d068d0a814620003ec578063d547741f1462000403578063f288a2e2146200041a578063f68e9553146200042457620001d2565b8063bdacb30314620003a7578063ca15c87314620003be578063ceb68c2314620003d557620001d2565b806398c4f1ac11620000e757806398c4f1ac1462000365578063a217fddf146200036f578063af92a6931462000379578063ba904eed146200039057620001d2565b80638e3630d214620003115780639010d07c146200032857806391d14854146200033f57620001d2565b8063248a9ca31162000189578063306b1022116200015f578063306b102214620002c257806336568abe14620002d95780635c8ab63d14620002f05780637048027514620002fa57620001d2565b8063248a9ca3146200027d578063256b5a0214620002945780632f2ff15d14620002ab57620001d2565b806307bd026514620001d7578063135e51ce14620001f957806316dc8c04146200021f5780631785f53c14620002385780631f5a0bbe146200024f578063247884291462000266575b600080fd5b620001e16200042e565b604051620001f09190620014c6565b60405180910390f35b620002106200020a366004620012e6565b62000452565b604051620001f0919062001421565b6200023662000230366004620012c0565b62000800565b005b6200023662000249366004620012c0565b620008bf565b6200023662000260366004620012c0565b620008cc565b6200023662000277366004620012c0565b620008f8565b620001e16200028e36600462001361565b62000924565b62000236620002a5366004620012c0565b62000939565b62000236620002bc3660046200137a565b62000960565b62000236620002d3366004620012c0565b620009ce565b62000236620002ea3660046200137a565b62000a8a565b620001e162000af1565b620002366200030b366004620012c0565b62000b15565b6200023662000322366004620012c0565b62000b22565b6200021062000339366004620013ac565b62000c06565b62000356620003503660046200137a565b62000c29565b604051620001f09190620014bb565b620001e162000c43565b620001e162000c67565b620002366200038a366004620012c0565b62000c6c565b62000236620003a1366004620012c0565b62000c98565b62000236620003b8366004620012c0565b62000cc4565b620001e1620003cf36600462001361565b62000e1c565b62000236620003e6366004620012c0565b62000e35565b62000236620003fd366004620012c0565b62000e61565b62000236620004143660046200137a565b62000f39565b620001e162000f97565b620001e162000faa565b7fd8aa0f3194971a2a116679f7c2090f6939c8d4e01a2a8d7e41d55e5351469e6381565b600062000463816200035062000feb565b604051806040016040528060118152602001701110d04e9050d0d154d4d7d11153925151607a1b81525090620004b75760405162461bcd60e51b8152600401620004ae9190620014fe565b60405180910390fd5b506001600160a01b038516151580620004d857506001600160a01b03841615155b80620004e357508115155b620005025760405162461bcd60e51b8152600401620004ae9062001656565b836001600160a01b0316856001600160a01b03161415620005375760405162461bcd60e51b8152600401620004ae90620015b8565b6200054460028662000fef565b620005635760405162461bcd60e51b8152600401620004ae9062001581565b6200057060048562000fef565b6200058f5760405162461bcd60e51b8152600401620004ae906200161f565b606060405180602001620005a390620012b2565b6020820181038252601f19601f8201166040525090506000868686604051602001620005d293929190620013dd565b6040516020818303038152906040528051906020012090506000818351602085016000f56007546040516356ff6f4d60e11b81529192506001600160a01b03169063adfede9a906200062f908b908b908b90879060040162001480565b600060405180830381600087803b1580156200064a57600080fd5b505af11580156200065f573d6000803e3d6000fd5b50506006546040516312b5ad0160e11b81526001600160a01b03909116925063256b5a0291506200069590849060040162001421565b600060405180830381600087803b158015620006b057600080fd5b505af1158015620006c5573d6000803e3d6000fd5b505060065460085460405163483e431f60e11b81528594506001600160a01b03808616945063907c863e936200070d938f938f93928316928f928f9291169060040162001435565b600060405180830381600087803b1580156200072857600080fd5b505af11580156200073d573d6000803e3d6000fd5b5050604051637048027560e01b81526001600160a01b0384169250637048027591506200076f90339060040162001421565b600060405180830381600087803b1580156200078a57600080fd5b505af11580156200079f573d6000803e3d6000fd5b50505050876001600160a01b0316896001600160a01b03167fecfd9167e3a96c0b4b2c8b159d9b4d893879937884f205669858784a8a78aba1898986604051620007ec93929190620014cf565b60405180910390a350979650505050505050565b6200081e600080516020620052368339815191526200035062000feb565b8062000844575060015460ff161580156200084457506200084460006200035062000feb565b604051806040016040528060118152602001701110d04e9050d0d154d4d7d11153925151607a1b815250906200088f5760405162461bcd60e51b8152600401620004ae9190620014fe565b50620008bc7f2c0e86ef42968f843b5fc3a6f6d421401da96923e1a6a2299b016956535a3b828262000f39565b50565b620008bc60008262000f39565b620008bc7fd8aa0f3194971a2a116679f7c2090f6939c8d4e01a2a8d7e41d55e5351469e638262000960565b620008bc7fd8aa0f3194971a2a116679f7c2090f6939c8d4e01a2a8d7e41d55e5351469e638262000f39565b60009081526020819052604090206002015490565b620008bc7f31e0210044b4f6757ce6aa31f9c6e8d4896d24a755014887391a926c5224d959825b60008281526020819052604090206002015462000981906200035062000feb565b620009be5760405162461bcd60e51b815260040180806020018281038252602f81526020018062005207602f913960400191505060405180910390fd5b620009ca828262001006565b5050565b620009ec600080516020620052368339815191526200035062000feb565b8062000a12575060015460ff1615801562000a12575062000a1260006200035062000feb565b604051806040016040528060118152602001701110d04e9050d0d154d4d7d11153925151607a1b8152509062000a5d5760405162461bcd60e51b8152600401620004ae9190620014fe565b50620008bc7f2c0e86ef42968f843b5fc3a6f6d421401da96923e1a6a2299b016956535a3b828262000960565b62000a9462000feb565b6001600160a01b0316816001600160a01b03161462000ae55760405162461bcd60e51b815260040180806020018281038252602f81526020018062005286602f913960400191505060405180910390fd5b620009ca828262001074565b7f2c0e86ef42968f843b5fc3a6f6d421401da96923e1a6a2299b016956535a3b8281565b620008bc60008262000960565b62000b3260006200035062000feb565b604051806040016040528060118152602001701110d04e9050d0d154d4d7d11153925151607a1b8152509062000b7d5760405162461bcd60e51b8152600401620004ae9190620014fe565b5062000b92816001600160a01b031662000fce565b62000bb15760405162461bcd60e51b8152600401620004ae90620015e8565b600062000bc060048362000fd4565b90508015620009ca577fd367f40d384fda9b2b1a21a8e9c0d911f93feae3e89e2ac8a07ad7ab6f98f5918260405162000bfa919062001421565b60405180910390a15050565b600082815260208190526040812062000c209083620010e2565b90505b92915050565b600082815260208190526040812062000c20908362000fef565b7f31e0210044b4f6757ce6aa31f9c6e8d4896d24a755014887391a926c5224d95981565b600081565b620008bc7fedcc084d3dcd65a1f7f23c65c46722faca6953d28e43150a467cf43e5c3092388262000960565b620008bc7fedcc084d3dcd65a1f7f23c65c46722faca6953d28e43150a467cf43e5c3092388262000f39565b62000ce2600080516020620052368339815191526200035062000feb565b8062000d08575060015460ff1615801562000d08575062000d0860006200035062000feb565b604051806040016040528060118152602001701110d04e9050d0d154d4d7d11153925151607a1b8152509062000d535760405162461bcd60e51b8152600401620004ae9190620014fe565b50806001600160a01b03166340dbf5576040518163ffffffff1660e01b815260040160206040518083038186803b15801562000d8e57600080fd5b505afa15801562000da3573d6000803e3d6000fd5b505050506040513d601f19601f8201168201806040525081019062000dc991906200133f565b62000de85760405162461bcd60e51b8152600401620004ae9062001554565b6001805460ff19168117905562000e0160008262000960565b620008bc600080516020620052368339815191528262000960565b600081815260208190526040812062000c2390620010f0565b620008bc7f31e0210044b4f6757ce6aa31f9c6e8d4896d24a755014887391a926c5224d9598262000f39565b62000e7160006200035062000feb565b604051806040016040528060118152602001701110d04e9050d0d154d4d7d11153925151607a1b8152509062000ebc5760405162461bcd60e51b8152600401620004ae9190620014fe565b5062000ed1816001600160a01b031662000fce565b62000ef05760405162461bcd60e51b8152600401620004ae90620015e8565b600062000eff60028362000fd4565b90508015620009ca577fd40b12ac60a056ac529d17db09f0fac8e02ac18dc026cdea17cf18d572f080d38260405162000bfa919062001421565b60008281526020819052604090206002015462000f5a906200035062000feb565b62000ae55760405162461bcd60e51b8152600401808060200182810382526030815260200180620052566030913960400191505060405180910390fd5b6000805160206200523683398151915281565b7fedcc084d3dcd65a1f7f23c65c46722faca6953d28e43150a467cf43e5c30923881565b3b151590565b600062000c20836001600160a01b038416620010fd565b3390565b600062000c20836001600160a01b0384166200114c565b600082815260208190526040902062001020908262000fd4565b15620009ca576200103062000feb565b6001600160a01b0316816001600160a01b0316837f2f8788117e7eff1d82e926ec794901d17c78024a50270940304540a733656f0d60405160405180910390a45050565b60008281526020819052604090206200108e908262001164565b15620009ca576200109e62000feb565b6001600160a01b0316816001600160a01b0316837ff6391f5c32d9c69d2a47ea670b442974b53935d1edc7fd64eb21e047a839171b60405160405180910390a45050565b600062000c2083836200117b565b600062000c2382620011e2565b60006200110b83836200114c565b620011435750815460018181018455600084815260208082209093018490558454848252828601909352604090209190915562000c23565b50600062000c23565b60009081526001919091016020526040902054151590565b600062000c20836001600160a01b038416620011e6565b81546000908210620011bf5760405162461bcd60e51b8152600401808060200182810382526022815260200180620051e56022913960400191505060405180910390fd5b826000018281548110620011cf57fe5b9060005260206000200154905092915050565b5490565b60008181526001830160205260408120548015620012a757835460001980830191908101906000908790839081106200121b57fe5b90600052602060002001549050808760000184815481106200123957fe5b6000918252602080832090910192909255828152600189810190925260409020908401905586548790806200126a57fe5b6001900381819060005260206000200160009055905586600101600087815260200190815260200160002060009055600194505050505062000c23565b600091505062000c23565b613b4180620016a483390190565b600060208284031215620012d2578081fd5b8135620012df816200168d565b9392505050565b60008060008060808587031215620012fc578283fd5b843562001309816200168d565b935060208501356200131b816200168d565b92506040850135600781106200132f578283fd5b9396929550929360600135925050565b60006020828403121562001351578081fd5b81518015158114620012df578182fd5b60006020828403121562001373578081fd5b5035919050565b600080604083850312156200138d578182fd5b823591506020830135620013a1816200168d565b809150509250929050565b60008060408385031215620013bf578182fd5b50508035926020909101359150565b60078110620013d957fe5b9052565b60006bffffffffffffffffffffffff19808660601b168352808560601b16601484015250600783106200140c57fe5b5060f89190911b602882015260290192915050565b6001600160a01b0391909116815260200190565b6001600160a01b0387811682528681166020830152858116604083015260c0820190620014666060840187620013ce565b84608084015280841660a084015250979650505050505050565b6001600160a01b03858116825284811660208301526080820190620014a96040840186620013ce565b80841660608401525095945050505050565b901515815260200190565b90815260200190565b60608101620014df8286620013ce565b60208201939093526001600160a01b0391909116604090910152919050565b6000602080835283518082850152825b818110156200152c578581018301518582016040015282016200150e565b818111156200153e5783604083870101525b50601f01601f1916929092016040019392505050565b6020808252601390820152724443413a494c4c4547414c5f4144445245535360681b604082015260600190565b6020808252601c908201527f4443415f464143544f52593a20494e56414c49445f425f544f4b454e00000000604082015260600190565b6020808252601690820152752221a0afa320a1aa27a92c9d29a0a6a2afaa27a5a2a760511b604082015260600190565b60208082526018908201527f4443415f464143544f52593a494e56414c49445f444154410000000000000000604082015260600190565b6020808252601b908201527f4443415f464143544f52593a494e56414c49445f4f5f544f4b454e0000000000604082015260600190565b60208082526018908201527f4443415f464143544f52593a494e56414c49445f415247530000000000000000604082015260600190565b6001600160a01b0381168114620008bc57600080fdfe60806040526001805460ff191690553480156200001b57600080fd5b506200003260006200002c6200003d565b62000041565b600160025562000151565b3390565b6200004d828262000051565b5050565b6000828152602081815260409091206200007691839062001ed2620000ca821b17901c565b156200004d57620000866200003d565b6001600160a01b0316816001600160a01b0316837f2f8788117e7eff1d82e926ec794901d17c78024a50270940304540a733656f0d60405160405180910390a45050565b6000620000e1836001600160a01b038416620000ea565b90505b92915050565b6000620000f8838362000139565b6200013057508154600181810184556000848152602080822090930184905584548482528286019093526040902091909155620000e4565b506000620000e4565b60009081526001919091016020526040902054151590565b6139e080620001616000396000f3fe60806040526004361061028c5760003560e01c8063704802751161015a578063ba904eed116100c1578063ceb68c231161007a578063ceb68c231461075c578063ceed7c5f1461077c578063d547741f1461079c578063f288a2e2146107bc578063f68e9553146107d1578063ff073392146107e657610293565b8063ba904eed146106b4578063ba9510c6146106d4578063bdacb303146106f4578063c55dae6314610714578063ca15c87314610729578063cc3aa5581461074957610293565b8063957ae8af11610113578063957ae8af14610622578063966571411461063557806398c4f1ac1461064a578063a217fddf1461065f578063a762c31914610674578063af92a6931461069457610293565b806370480275146105535780637773fd991461057357806385d18917146105935780639010d07c146105b5578063907c863e146105d557806391d14854146105f557610293565b8063306b1022116101fe5780635d7d8b51116101b75780635d7d8b51146104995780635df0805d146104b9578063610526d1146104ce5780636be1158f146104ee5780636dd22fc61461051e5780636fe1e5a61461053357610293565b8063306b1022146103fa5780633648524d1461041a57806336568abe1461042f5780633ccfd60b1461044f5780634f62421f146104645780635c8ab63d1461048457610293565b80631785f53c116102505780631785f53c1461033a5780631f5a0bbe1461035a578063247884291461037a578063248a9ca31461039a578063256b5a02146103ba5780632f2ff15d146103da57610293565b806307bd026514610298578063080d7c4d146102c357806310397164146102e557806316dc8c041461030557806317153b391461032557610293565b3661029357005b600080fd5b3480156102a457600080fd5b506102ad6107fb565b6040516102ba919061342d565b60405180910390f35b3480156102cf57600080fd5b506102e36102de36600461322e565b61081f565b005b3480156102f157600080fd5b506102e361030036600461339b565b61094c565b34801561031157600080fd5b506102e3610320366004613197565b610a2e565b34801561033157600080fd5b506102e3610acd565b34801561034657600080fd5b506102e3610355366004613197565b610b04565b34801561036657600080fd5b506102e3610375366004613197565b610b0f565b34801561038657600080fd5b506102e3610395366004613197565b610b39565b3480156103a657600080fd5b506102ad6103b53660046132f9565b610b63565b3480156103c657600080fd5b506102e36103d5366004613197565b610b78565b3480156103e657600080fd5b506102e36103f5366004613311565b610b9e565b34801561040657600080fd5b506102e3610415366004613197565b610c01565b34801561042657600080fd5b506102ad610c9d565b34801561043b57600080fd5b506102e361044a366004613311565b610ca3565b34801561045b57600080fd5b506102e3610d04565b34801561047057600080fd5b506102e361047f366004613197565b610e7c565b34801561049057600080fd5b506102ad610f6f565b3480156104a557600080fd5b506102e36104b436600461339b565b610f81565b3480156104c557600080fd5b506102ad61109f565b3480156104da57600080fd5b506102e36104e936600461339b565b6110a5565b3480156104fa57600080fd5b5061050e610509366004613197565b61111f565b6040516102ba94939291906136d2565b34801561052a57600080fd5b506102e361115e565b34801561053f57600080fd5b506102ad61054e366004613197565b611169565b34801561055f57600080fd5b506102e361056e366004613197565b61121d565b34801561057f57600080fd5b506102e361058e3660046132f9565b611228565b34801561059f57600080fd5b506105a861128f565b6040516102ba91906133ad565b3480156105c157600080fd5b506105a86105d0366004613340565b61129e565b3480156105e157600080fd5b506102e36105f03660046131b3565b6112bf565b34801561060157600080fd5b50610615610610366004613311565b611577565b6040516102ba9190613422565b6102e361063036600461339b565b61158f565b34801561064157600080fd5b506102ad61176d565b34801561065657600080fd5b506102ad611773565b34801561066b57600080fd5b506102ad611797565b34801561068057600080fd5b506102ad61068f366004613197565b61179c565b3480156106a057600080fd5b506102e36106af366004613197565b6118c9565b3480156106c057600080fd5b506102e36106cf366004613197565b6118f3565b3480156106e057600080fd5b506102ad6106ef3660046132f9565b61191d565b34801561070057600080fd5b506102e361070f366004613197565b61193e565b34801561072057600080fd5b506105a8611a7e565b34801561073557600080fd5b506102ad6107443660046132f9565b611a8d565b6102e361075736600461339b565b611aa4565b34801561076857600080fd5b506102e3610777366004613197565b611bb1565b34801561078857600080fd5b506102e3610797366004613259565b611bdb565b3480156107a857600080fd5b506102e36107b7366004613311565b611e3a565b3480156107c857600080fd5b506102ad611e93565b3480156107dd57600080fd5b506102ad611ea5565b3480156107f257600080fd5b50610615611ec9565b7fd8aa0f3194971a2a116679f7c2090f6939c8d4e01a2a8d7e41d55e5351469e6381565b6108396000805160206138d6833981519152610610611ee7565b604051806040016040528060118152602001701110d04e9050d0d154d4d7d11153925151607a1b8152509061088a5760405162461bcd60e51b81526004016108819190613436565b60405180910390fd5b506006546108a2906001600160a01b03168383611eeb565b600554604051636eb1769f60e11b8152610948918491610935916001600160a01b03169063dd62ed3e906108dc90309086906004016133c1565b60206040518083038186803b1580156108f457600080fd5b505afa158015610908573d6000803e3d6000fd5b505050506040513d601f19601f8201168201806040525081019061092c9190613383565b60001990611fd6565b6005546001600160a01b03169190611eeb565b5050565b600280541415610991576040805162461bcd60e51b815260206004820152601f602482015260008051602061376a833981519152604482015290519081900360640190fd5b600280556000806109a28484612018565b91509150808211156109ea5760006109ba8383611fd6565b6007549091506109ca9082611fd6565b6007556006546109e4906001600160a01b03163383612313565b50610a23565b60006109f68284611fd6565b600754909150610a069082612365565b600755600654610a21906001600160a01b03163330846123bf565b505b505060016002555050565b610a4860008051602061378a833981519152610610611ee7565b80610a69575060015460ff16158015610a695750610a696000610610611ee7565b604051806040016040528060118152602001701110d04e9050d0d154d4d7d11153925151607a1b81525090610ab15760405162461bcd60e51b81526004016108819190613436565b50610aca6000805160206138d683398151915282611e3a565b50565b60035460ff16610aef5760405162461bcd60e51b815260040161088190613611565b610afa60008061158f565b610b02610d04565b565b610aca600082611e3a565b610aca7fd8aa0f3194971a2a116679f7c2090f6939c8d4e01a2a8d7e41d55e5351469e6382610b9e565b610aca7fd8aa0f3194971a2a116679f7c2090f6939c8d4e01a2a8d7e41d55e5351469e6382611e3a565b60009081526020819052604090206002015490565b610aca7f31e0210044b4f6757ce6aa31f9c6e8d4896d24a755014887391a926c5224d959825b600082815260208190526040902060020154610bbc90610610611ee7565b610bf75760405162461bcd60e51b815260040180806020018281038252602f81526020018061373b602f913960400191505060405180910390fd5b6109488282612419565b610c1b60008051602061378a833981519152610610611ee7565b80610c3c575060015460ff16158015610c3c5750610c3c6000610610611ee7565b604051806040016040528060118152602001701110d04e9050d0d154d4d7d11153925151607a1b81525090610c845760405162461bcd60e51b81526004016108819190613436565b50610aca6000805160206138d683398151915282610b9e565b60075481565b610cab611ee7565b6001600160a01b0316816001600160a01b031614610cfa5760405162461bcd60e51b815260040180806020018281038252602f81526020018061397c602f913960400191505060405180910390fd5b6109488282612482565b600280541415610d49576040805162461bcd60e51b815260206004820152601f602482015260008051602061376a833981519152604482015290519081900360640190fd5b60028055336000610d598261179c565b905080610d67575050610e75565b6001600160a01b03821660009081526009602052604090206001810154600a54610da891610da391600160201b90910463ffffffff16906124eb565b612501565b60018201805463ffffffff191663ffffffff92831617905581546001600160801b0319168255600854610ddd918490611fd616565b600855610de8612549565b15610e5a5760035460405163f3fef3a360e01b81526101009091046001600160a01b03169063f3fef3a390610e239086908690600401613409565b600060405180830381600087803b158015610e3d57600080fd5b505af1158015610e51573d6000803e3d6000fd5b50505050610e71565b600554610e71906001600160a01b03168484612313565b5050505b6001600255565b610e9660008051602061378a833981519152610610611ee7565b80610eb7575060015460ff16158015610eb75750610eb76000610610611ee7565b604051806040016040528060118152602001701110d04e9050d0d154d4d7d11153925151607a1b81525090610eff5760405162461bcd60e51b81526004016108819190613436565b50610f12816001600160a01b031661255f565b610f2e5760405162461bcd60e51b815260040161088190613545565b600554610f47906001600160a01b031682600019612565565b600380546001600160a01b0390921661010002610100600160a81b0319909216919091179055565b6000805160206138d683398151915281565b610f9b6000805160206138d6833981519152610610611ee7565b604051806040016040528060118152602001701110d04e9050d0d154d4d7d11153925151607a1b81525090610fe35760405162461bcd60e51b81526004016108819190613436565b508115801590610ff257508015155b61100e5760405162461bcd60e51b815260040161088190613575565b600a805460009190600019810190811061102457fe5b600091825260208220015491506110558461104f856f4b3b4ca85a86c47a098a224000000000612678565b906126d1565b9050600a6110638383612365565b815460018101835560009283526020909220909101556007546110869085611fd6565b6007556008546110969084612365565b60085550505050565b600b5481565b6002805414156110ea576040805162461bcd60e51b815260206004820152601f602482015260008051602061376a833981519152604482015290519081900360640190fd5b6002805560006110fa8383612713565b600654909150611115906001600160a01b03163330846123bf565b5050600160025550565b600960205260009081526040902080546001909101546001600160801b0380831692600160801b9004169063ffffffff80821691600160201b90041684565b610afa60008061094c565b6000611173613170565b506001600160a01b0382166000908152600960209081526040808320815160808101835281546001600160801b038082168352600160801b90910416938101939093526001015463ffffffff80821692840192909252600160201b90041660608201819052600a5491929082106111eb5760006111f9565b81836060015163ffffffff16035b6020840151909150611214906001600160801b031682612678565b95945050505050565b610aca600082610b9e565b6112356000610610611ee7565b604051806040016040528060118152602001701110d04e9050d0d154d4d7d11153925151607a1b8152509061127d5760405162461bcd60e51b81526004016108819190613436565b506112896001826129f0565b600b5550565b6005546001600160a01b031681565b60008281526020819052604081206112b69083612a00565b90505b92915050565b60015462010000900460ff16806112d957506112d9612a0c565b806112ec5750600154610100900460ff16155b6113275760405162461bcd60e51b815260040180806020018281038252602e815260200180613861602e913960400191505060405180910390fd5b60015462010000900460ff16158015611357576001805461ff001962ff0000199091166201000017166101001790555b6113646000610610611ee7565b604051806040016040528060118152602001701110d04e9050d0d154d4d7d11153925151607a1b815250906113ac5760405162461bcd60e51b81526004016108819190613436565b506113bf876001600160a01b031661255f565b80156113d857506113d8866001600160a01b031661255f565b80156113f157506113f1856001600160a01b031661255f565b801561140a575061140a826001600160a01b031661255f565b6114265760405162461bcd60e51b8152600401610881906135ac565b6003805460ff19166001600160a01b038981168186168114929092179092556001600b819055600580548a85166001600160a01b0319918216179091556006805482169093179092556004805493891693909216929092179055600c849055600a8054918201815560009081527fc65a7bb8d6351c1cf70c95a316cc6a92839c986682d98bc35f958f4883f9d2a8909101556114c185610c01565b6004546040805160a0810182523081526001600160a01b038a8116602083015289811692820192909252911690631e69fa8b906060810187600681111561150457fe5b8152602001868152506040518263ffffffff1660e01b8152600401611529919061367f565b600060405180830381600087803b15801561154357600080fd5b505af1158015611557573d6000803e3d6000fd5b50505050801561156e576001805462ff0000191690555b50505050505050565b60008281526020819052604081206112b69083612a12565b60035460ff166115b15760405162461bcd60e51b815260040161088190613611565b6002805414156115f6576040805162461bcd60e51b815260206004820152601f602482015260008051602061376a833981519152604482015290519081900360640190fd5b600280556000806116078484612018565b91509150808211156116b157600061161f8383611fd6565b60075490915061162f9082611fd6565b600755600654604051632e1a7d4d60e01b81526001600160a01b0390911690632e1a7d4d9061166290849060040161342d565b600060405180830381600087803b15801561167c57600080fd5b505af1158015611690573d6000803e3d6000fd5b505050506109e46116aa348361236590919063ffffffff16565b3390612a27565b3460006116be8385611fd6565b90508082146116df5760405162461bcd60e51b815260040161088190613648565b600660009054906101000a90046001600160a01b03166001600160a01b031663d0e30db0836040518263ffffffff1660e01b81526004016000604051808303818588803b15801561172f57600080fd5b505af1158015611743573d6000803e3d6000fd5b505050505061175d8160075461236590919063ffffffff16565b6007555050505060016002555050565b60085481565b7f31e0210044b4f6757ce6aa31f9c6e8d4896d24a755014887391a926c5224d95981565b600081565b60006117a6613170565b50506001600160a01b0381166000908152600960209081526040808320815160808101835281546001600160801b03808216808452600160801b909204169482019490945260019091015463ffffffff808216938301849052600160201b909104811660608301819052600a549495929460001994850183169461182f939181019201166124eb565b9050818111156118c1576000600a838154811061184857fe5b906000526020600020015490506000600a838154811061186457fe5b6000918252602082200154915061187b8284611fd6565b90506118bb6118b46f4b3b4ca85a86c47a098a22400000000061104f848a602001516001600160801b031661267890919063ffffffff16565b8890612365565b96505050505b505050919050565b610aca7fedcc084d3dcd65a1f7f23c65c46722faca6953d28e43150a467cf43e5c30923882610b9e565b610aca7fedcc084d3dcd65a1f7f23c65c46722faca6953d28e43150a467cf43e5c30923882611e3a565b600a818154811061192d57600080fd5b600091825260209091200154905081565b61195860008051602061378a833981519152610610611ee7565b80611979575060015460ff1615801561197957506119796000610610611ee7565b604051806040016040528060118152602001701110d04e9050d0d154d4d7d11153925151607a1b815250906119c15760405162461bcd60e51b81526004016108819190613436565b50806001600160a01b03166340dbf5576040518163ffffffff1660e01b815260040160206040518083038186803b1580156119fb57600080fd5b505afa158015611a0f573d6000803e3d6000fd5b505050506040513d601f19601f82011682018060405250810190611a3391906132d9565b611a4f5760405162461bcd60e51b815260040161088190613518565b6001805460ff191681179055611a66600082610b9e565b610aca60008051602061378a83398151915282610b9e565b6006546001600160a01b031681565b60008181526020819052604081206112b990612b0c565b60035460ff16611ac65760405162461bcd60e51b815260040161088190613611565b600280541415611b0b576040805162461bcd60e51b815260206004820152601f602482015260008051602061376a833981519152604482015290519081900360640190fd5b60028055346000611b1c8484612713565b9050818114611b3d5760405162461bcd60e51b815260040161088190613648565b600660009054906101000a90046001600160a01b03166001600160a01b031663d0e30db0836040518263ffffffff1660e01b81526004016000604051808303818588803b158015611b8d57600080fd5b505af1158015611ba1573d6000803e3d6000fd5b5050600160025550505050505050565b610aca7f31e0210044b4f6757ce6aa31f9c6e8d4896d24a755014887391a926c5224d95982611e3a565b611be86000610610611ee7565b604051806040016040528060118152602001701110d04e9050d0d154d4d7d11153925151607a1b81525090611c305760405162461bcd60e51b81526004016108819190613436565b5060005b82811015611df7576000848483818110611c4a57fe5b9050602002016020810190611c5f9190613197565b90506000816001600160a01b03166370a08231306040518263ffffffff1660e01b8152600401611c8f91906133ad565b60206040518083038186803b158015611ca757600080fd5b505afa158015611cbb573d6000803e3d6000fd5b505050506040513d601f19601f82011682018060405250810190611cdf9190613383565b9050611ce9612549565b15611d81576003546040516370a0823160e01b8152611d7f916001600160a01b03808616926370a0823192611d289261010090910416906004016133ad565b60206040518083038186803b158015611d4057600080fd5b505afa158015611d54573d6000803e3d6000fd5b505050506040513d601f19601f82011682018060405250810190611d789190613383565b8290612365565b505b6006546001600160a01b0383811691161415611dac57600754611da5908290611fd6565b9050611dd3565b6005546001600160a01b0383811691161415611dd357600854611dd0908290611fd6565b90505b8015611ded57611ded6001600160a01b0383168583612313565b5050600101611c34565b504715611e35576040516001600160a01b038216904780156108fc02916000818181858888f19350505050158015611e33573d6000803e3d6000fd5b505b505050565b600082815260208190526040902060020154611e5890610610611ee7565b610cfa5760405162461bcd60e51b81526004018080602001828103825260308152602001806138316030913960400191505060405180910390fd5b60008051602061378a83398151915281565b7fedcc084d3dcd65a1f7f23c65c46722faca6953d28e43150a467cf43e5c30923881565b60035460ff1681565b60006112b6836001600160a01b038416612b17565b3390565b6000611f8182856001600160a01b031663dd62ed3e30876040518363ffffffff1660e01b815260040180836001600160a01b03168152602001826001600160a01b031681526020019250505060206040518083038186803b158015611f4f57600080fd5b505afa158015611f63573d6000803e3d6000fd5b505050506040513d6020811015611f7957600080fd5b505190612365565b604080516001600160a01b038616602482015260448082018490528251808303909101815260649091019091526020810180516001600160e01b031663095ea7b360e01b179052909150611e33908590612b61565b60006112b683836040518060400160405280601e81526020017f536166654d6174683a207375627472616374696f6e206f766572666c6f770000815250612c12565b6000806000612032600c5486612cae90919063ffffffff16565b90506000811180156120445750600084115b80156120cc57506004805460408051633768052160e01b815290516001600160a01b03909216926337680521928282019260209290829003018186803b15801561208d57600080fd5b505afa1580156120a1573d6000803e3d6000fd5b505050506040513d601f19601f820116820180604052508101906120c59190613361565b61ffff1684105b806120de5750801580156120de575083155b6120fa5760405162461bcd60e51b8152600401610881906135da565b8015806121095750600b548110155b6121255760405162461bcd60e51b8152600401610881906134c0565b3360008181526009602052604090208054600160801b90046001600160801b0316806121635760405162461bcd60e51b8152600401610881906134eb565b6001820154600a546004805460405163ba64434f60e01b8152600160201b90940463ffffffff16938b8401926001600160a01b039092169163ba64434f916121b5913091899189918e918991016133db565b600060405180830381600087803b1580156121cf57600080fd5b505af11580156121e3573d6000803e3d6000fd5b505050506121f086611169565b98506121fc878b612678565b975060006122098761179c565b905061221488612cc3565b86546001600160801b03918216600160801b02911617865561223582612501565b8660010160046101000a81548163ffffffff021916908363ffffffff1602179055506000612266610da385856124eb565b63ffffffff16905061227781612501565b60018801805463ffffffff191663ffffffff9290921691909117905561229c82612cc3565b8760000160006101000a8154816001600160801b0302191690836001600160801b031602179055507f198c16756915fdc15e761f2ae0286cf943408a7dc427a61009a5165ae809103a888a838f866040516122fb9594939291906133db565b60405180910390a15050505050505050509250929050565b604080516001600160a01b038416602482015260448082018490528251808303909101815260649091019091526020810180516001600160e01b031663a9059cbb60e01b179052611e35908490612b61565b6000828201838110156112b6576040805162461bcd60e51b815260206004820152601b60248201527f536166654d6174683a206164646974696f6e206f766572666c6f770000000000604482015290519081900360640190fd5b604080516001600160a01b0380861660248301528416604482015260648082018490528251808303909101815260849091019091526020810180516001600160e01b03166323b872dd60e01b179052611e33908590612b61565b60008281526020819052604090206124319082611ed2565b156109485761243e611ee7565b6001600160a01b0316816001600160a01b0316837f2f8788117e7eff1d82e926ec794901d17c78024a50270940304540a733656f0d60405160405180910390a45050565b600082815260208190526040902061249a9082612d07565b15610948576124a7611ee7565b6001600160a01b0316816001600160a01b0316837ff6391f5c32d9c69d2a47ea670b442974b53935d1edc7fd64eb21e047a839171b60405160405180910390a45050565b60008183106124fa57816112b6565b5090919050565b6000600160201b82106125455760405162461bcd60e51b81526004018080602001828103825260268152602001806138f66026913960400191505060405180910390fd5b5090565b60035461010090046001600160a01b0316151590565b3b151590565b8015806125eb575060408051636eb1769f60e11b81523060048201526001600160a01b03848116602483015291519185169163dd62ed3e91604480820192602092909190829003018186803b1580156125bd57600080fd5b505afa1580156125d1573d6000803e3d6000fd5b505050506040513d60208110156125e757600080fd5b5051155b6126265760405162461bcd60e51b81526004018080602001828103825260368152602001806139466036913960400191505060405180910390fd5b604080516001600160a01b038416602482015260448082018490528251808303909101815260649091019091526020810180516001600160e01b031663095ea7b360e01b179052611e35908490612b61565b600082612687575060006112b9565b8282028284828161269457fe5b04146112b65760405162461bcd60e51b815260040180806020018281038252602181526020018061388f6021913960400191505060405180910390fd5b60006112b683836040518060400160405280601a81526020017f536166654d6174683a206469766973696f6e206279207a65726f000000000000815250612d1c565b60008061272b600c5485612cae90919063ffffffff16565b905060008111801561273d5750600083115b80156127c557506004805460408051633768052160e01b815290516001600160a01b03909216926337680521928282019260209290829003018186803b15801561278657600080fd5b505afa15801561279a573d6000803e3d6000fd5b505050506040513d601f19601f820116820180604052508101906127be9190613361565b61ffff1683105b6127e15760405162461bcd60e51b8152600401610881906135da565b33600081815260096020526040902054600160801b90046001600160801b03161561281e5760405162461bcd60e51b815260040161088190613489565b600b548210156128405760405162461bcd60e51b8152600401610881906134c0565b61284a8285612678565b600a5460408051608081019091526000815291945090858201906020810161287186612cc3565b6001600160801b0316815260200161288884612501565b63ffffffff16815260200161289c83612501565b63ffffffff9081169091526001600160a01b03858116600090815260096020908152604080832086518154938801516001600160801b03199094166001600160801b03918216178116600160801b9190941602929092178255858101516001909201805460609097015163ffffffff199097169286169290921767ffffffff000000001916600160201b96909516959095029390931790925560048054935163ba64434f60e01b8152939091169263ba64434f9261296292309282918b918991016133db565b600060405180830381600087803b15801561297c57600080fd5b505af1158015612990573d6000803e3d6000fd5b50506007546129a29250905086612365565b6007556040517f198c16756915fdc15e761f2ae0286cf943408a7dc427a61009a5165ae809103a906129de908590879086908b906000906133db565b60405180910390a15050505092915050565b6000818310156124fa57816112b6565b60006112b68383612d81565b303b1590565b60006112b6836001600160a01b038416612de5565b80471015612a7c576040805162461bcd60e51b815260206004820152601d60248201527f416464726573733a20696e73756666696369656e742062616c616e6365000000604482015290519081900360640190fd5b6040516000906001600160a01b0384169083908381818185875af1925050503d8060008114612ac7576040519150601f19603f3d011682016040523d82523d6000602084013e612acc565b606091505b5050905080611e355760405162461bcd60e51b815260040180806020018281038252603a8152602001806137d1603a913960400191505060405180910390fd5b60006112b982612dfd565b6000612b238383612de5565b612b59575081546001818101845560008481526020808220909301849055845484825282860190935260409020919091556112b9565b5060006112b9565b6060612bb6826040518060400160405280602081526020017f5361666545524332303a206c6f772d6c6576656c2063616c6c206661696c6564815250856001600160a01b0316612e019092919063ffffffff16565b805190915015611e3557808060200190516020811015612bd557600080fd5b5051611e355760405162461bcd60e51b815260040180806020018281038252602a81526020018061391c602a913960400191505060405180910390fd5b60008184841115612ca15760405162461bcd60e51b81526004018080602001828103825283818151815260200191508051906020019080838360005b83811015612c66578181015183820152602001612c4e565b50505050905090810190601f168015612c935780820380516001836020036101000a031916815260200191505b509250505060405180910390fd5b50508183035b9392505050565b60006112b6612cbd8484612e18565b83612e89565b6000600160801b82106125455760405162461bcd60e51b81526004018080602001828103825260278152602001806137aa6027913960400191505060405180910390fd5b60006112b6836001600160a01b038416612e9f565b60008183612d6b5760405162461bcd60e51b8152602060048201818152835160248401528351909283926044909101919085019080838360008315612c66578181015183820152602001612c4e565b506000838581612d7757fe5b0495945050505050565b81546000908210612dc35760405162461bcd60e51b81526004018080602001828103825260228152602001806137196022913960400191505060405180910390fd5b826000018281548110612dd257fe5b9060005260206000200154905092915050565b60009081526001919091016020526040902054151590565b5490565b6060612e108484600085612f65565b949350505050565b6000612e2c612e2784846126d1565b6130c1565b905060008167ffffffffffffffff161180612e45575082155b6112b9576040805162461bcd60e51b815260206004820152601060248201526f53573a5154595f554e444552464c4f5760801b604482015290519081900360640190fd5b60006112b68267ffffffffffffffff8516612678565b60008181526001830160205260408120548015612f5b5783546000198083019190810190600090879083908110612ed257fe5b9060005260206000200154905080876000018481548110612eef57fe5b600091825260208083209091019290925582815260018981019092526040902090840190558654879080612f1f57fe5b600190038181906000526020600020016000905590558660010160008781526020019081526020016000206000905560019450505050506112b9565b60009150506112b9565b606082471015612fa65760405162461bcd60e51b815260040180806020018281038252602681526020018061380b6026913960400191505060405180910390fd5b612faf8561255f565b613000576040805162461bcd60e51b815260206004820152601d60248201527f416464726573733a2063616c6c20746f206e6f6e2d636f6e7472616374000000604482015290519081900360640190fd5b60006060866001600160a01b031685876040518082805190602001908083835b6020831061303f5780518252601f199092019160209182019101613020565b6001836020036101000a03801982511681845116808217855250505050505090500191505060006040518083038185875af1925050503d80600081146130a1576040519150601f19603f3d011682016040523d82523d6000602084013e6130a6565b606091505b50915091506130b682828661310a565b979650505050505050565b60006801000000000000000082106125455760405162461bcd60e51b81526004018080602001828103825260268152602001806138b06026913960400191505060405180910390fd5b60608315613119575081612ca7565b8251156131295782518084602001fd5b60405162461bcd60e51b8152602060048201818152845160248401528451859391928392604401919085019080838360008315612c66578181015183820152602001612c4e565b60408051608081018252600080825260208201819052918101829052606081019190915290565b6000602082840312156131a8578081fd5b81356112b681613703565b60008060008060008060c087890312156131cb578182fd5b86356131d681613703565b955060208701356131e681613703565b945060408701356131f681613703565b9350606087013560078110613209578283fd5b92506080870135915060a087013561322081613703565b809150509295509295509295565b60008060408385031215613240578182fd5b823561324b81613703565b946020939093013593505050565b60008060006040848603121561326d578283fd5b833567ffffffffffffffff80821115613284578485fd5b818601915086601f830112613297578485fd5b8135818111156132a5578586fd5b87602080830285010111156132b8578586fd5b602092830195509350508401356132ce81613703565b809150509250925092565b6000602082840312156132ea578081fd5b815180151581146112b6578182fd5b60006020828403121561330a578081fd5b5035919050565b60008060408385031215613323578182fd5b82359150602083013561333581613703565b809150509250929050565b60008060408385031215613352578182fd5b50508035926020909101359150565b600060208284031215613372578081fd5b815161ffff811681146112b6578182fd5b600060208284031215613394578081fd5b5051919050565b60008060408385031215613352578081fd5b6001600160a01b0391909116815260200190565b6001600160a01b0392831681529116602082015260400190565b6001600160a01b03959095168552602085019390935260408401919091526060830152608082015260a00190565b6001600160a01b03929092168252602082015260400190565b901515815260200190565b90815260200190565b6000602080835283518082850152825b8181101561346257858101830151858201604001528201613446565b818111156134735783604083870101525b50601f01601f1916929092016040019392505050565b60208082526018908201527f4443415f5641554c543a414c52454144595f4558495354530000000000000000604082015260600190565b6020808252601190820152704443415f5641554c543a4d494e5f51545960781b604082015260600190565b6020808252601390820152721110d057d5905553150e9393d517d193d55391606a1b604082015260600190565b6020808252601390820152724443413a494c4c4547414c5f4144445245535360681b604082015260600190565b6020808252601690820152754443415f5641554c543a494e56414c49445f4441544160501b604082015260600190565b60208082526018908201527f4443415f5641554c543a5a45524f5f455845435554494f4e0000000000000000604082015260600190565b6020808252601490820152732221a0afab20aaa62a1d24a724aa2fa2a92927a960611b604082015260600190565b60208082526019908201527f4443415f5641554c543a494e56414c49445f4143434f554e5400000000000000604082015260600190565b60208082526017908201527f4443415f5641554c543a4e4f4e5f4554485f5641554c54000000000000000000604082015260600190565b60208082526018908201527f4443415f5641554c543a494e56414c49445f414d4f554e540000000000000000604082015260600190565b81516001600160a01b03908116825260208084015182169083015260408084015190911690820152606082015160a0820190600781106136bb57fe5b806060840152506080830151608083015292915050565b6001600160801b03948516815292909316602083015263ffffffff9081166040830152909116606082015260800190565b6001600160a01b0381168114610aca57600080fdfe456e756d657261626c655365743a20696e646578206f7574206f6620626f756e6473416363657373436f6e74726f6c3a2073656e646572206d75737420626520616e2061646d696e20746f206772616e745265656e7472616e637947756172643a207265656e7472616e742063616c6c00f66846415d2bf9eabda9e84793ff9c0ea96d87f50fc41e66aa16469c6a442f0553616665436173743a2076616c756520646f65736e27742066697420696e203132382062697473416464726573733a20756e61626c6520746f2073656e642076616c75652c20726563697069656e74206d61792068617665207265766572746564416464726573733a20696e73756666696369656e742062616c616e636520666f722063616c6c416363657373436f6e74726f6c3a2073656e646572206d75737420626520616e2061646d696e20746f207265766f6b65496e697469616c697a61626c653a20636f6e747261637420697320616c726561647920696e697469616c697a6564536166654d6174683a206d756c7469706c69636174696f6e206f766572666c6f7753616665436173743a2076616c756520646f65736e27742066697420696e20363420626974732c0e86ef42968f843b5fc3a6f6d421401da96923e1a6a2299b016956535a3b8253616665436173743a2076616c756520646f65736e27742066697420696e20333220626974735361666545524332303a204552433230206f7065726174696f6e20646964206e6f7420737563636565645361666545524332303a20617070726f76652066726f6d206e6f6e2d7a65726f20746f206e6f6e2d7a65726f20616c6c6f77616e6365416363657373436f6e74726f6c3a2063616e206f6e6c792072656e6f756e636520726f6c657320666f722073656c66a264697066735822122033f730d2c022d21b480ede7ac79c554408c766095081ff3f5b2ced739200cc6a64736f6c63430007040033456e756d657261626c655365743a20696e646578206f7574206f6620626f756e6473416363657373436f6e74726f6c3a2073656e646572206d75737420626520616e2061646d696e20746f206772616e74f66846415d2bf9eabda9e84793ff9c0ea96d87f50fc41e66aa16469c6a442f05416363657373436f6e74726f6c3a2073656e646572206d75737420626520616e2061646d696e20746f207265766f6b65416363657373436f6e74726f6c3a2063616e206f6e6c792072656e6f756e636520726f6c657320666f722073656c66a2646970667358221220e68ee87aae088c4c7cef52393bbfdd262619895434b22d800a6425381a5d5a4964736f6c63430007040033",
  "linkReferences": {},
  "deployedLinkReferences": {}
}