{
  "_format": "hh-sol-artifact-1",
  "contractName": "DCAScheduler",
  "sourceName": "contracts/DCAScheduler.sol",
  "abi": [
    {
      "inputs": [
        {
          "internalType": "address",
          "name": "register",
          "type": "address"
        },
        {
          "internalType": "address",
          "name": "matchingEngine",
          "type": "address"
        }
      ],
      "stateMutability": "nonpayable",
      "type": "constructor"
    },
    {
      "anonymous": false,
      "inputs": [
        {
          "indexed": false,
          "internalType": "address",
          "name": "vault",
          "type": "address"
        },
        {
          "indexed": false,
          "internalType": "uint256",
          "name": "baseTokenQty",
          "type": "uint256"
        },
        {
          "indexed": false,
          "internalType": "uint256",
          "name": "orderTokenQty",
          "type": "uint256"
        },
        {
          "indexed": false,
          "internalType": "uint256",
          "name": "costs",
          "type": "uint256"
        },
        {
          "indexed": false,
          "internalType": "uint256",
          "name": "nextEvaluationTime",
          "type": "uint256"
        }
      ],
      "name": "PoolEvaluated",
      "type": "event"
    },
    {
      "anonymous": false,
      "inputs": [
        {
          "indexed": true,
          "internalType": "bytes32",
          "name": "role",
          "type": "bytes32"
        },
        {
          "indexed": true,
          "internalType": "bytes32",
          "name": "previousAdminRole",
          "type": "bytes32"
        },
        {
          "indexed": true,
          "internalType": "bytes32",
          "name": "newAdminRole",
          "type": "bytes32"
        }
      ],
      "name": "RoleAdminChanged",
      "type": "event"
    },
    {
      "anonymous": false,
      "inputs": [
        {
          "indexed": true,
          "internalType": "bytes32",
          "name": "role",
          "type": "bytes32"
        },
        {
          "indexed": true,
          "internalType": "address",
          "name": "account",
          "type": "address"
        },
        {
          "indexed": true,
          "internalType": "address",
          "name": "sender",
          "type": "address"
        }
      ],
      "name": "RoleGranted",
      "type": "event"
    },
    {
      "anonymous": false,
      "inputs": [
        {
          "indexed": true,
          "internalType": "bytes32",
          "name": "role",
          "type": "bytes32"
        },
        {
          "indexed": true,
          "internalType": "address",
          "name": "account",
          "type": "address"
        },
        {
          "indexed": true,
          "internalType": "address",
          "name": "sender",
          "type": "address"
        }
      ],
      "name": "RoleRevoked",
      "type": "event"
    },
    {
      "inputs": [],
      "name": "DEFAULT_ADMIN_ROLE",
      "outputs": [
        {
          "internalType": "bytes32",
          "name": "",
          "type": "bytes32"
        }
      ],
      "stateMutability": "view",
      "type": "function"
    },
    {
      "inputs": [],
      "name": "EXECUTOR_ROLE",
      "outputs": [
        {
          "internalType": "bytes32",
          "name": "",
          "type": "bytes32"
        }
      ],
      "stateMutability": "view",
      "type": "function"
    },
    {
      "inputs": [],
      "name": "REGISTRAR_ROLE",
      "outputs": [
        {
          "internalType": "bytes32",
          "name": "",
          "type": "bytes32"
        }
      ],
      "stateMutability": "view",
      "type": "function"
    },
    {
      "inputs": [],
      "name": "SCHEDULER_ROLE",
      "outputs": [
        {
          "internalType": "bytes32",
          "name": "",
          "type": "bytes32"
        }
      ],
      "stateMutability": "view",
      "type": "function"
    },
    {
      "inputs": [],
      "name": "TIMELOCK_ROLE",
      "outputs": [
        {
          "internalType": "bytes32",
          "name": "",
          "type": "bytes32"
        }
      ],
      "stateMutability": "view",
      "type": "function"
    },
    {
      "inputs": [],
      "name": "VAULT_ROLE",
      "outputs": [
        {
          "internalType": "bytes32",
          "name": "",
          "type": "bytes32"
        }
      ],
      "stateMutability": "view",
      "type": "function"
    },
    {
      "inputs": [
        {
          "internalType": "address",
          "name": "newAdmin",
          "type": "address"
        }
      ],
      "name": "addAdmin",
      "outputs": [],
      "stateMutability": "nonpayable",
      "type": "function"
    },
    {
      "inputs": [
        {
          "internalType": "address",
          "name": "newExecutor",
          "type": "address"
        }
      ],
      "name": "addExecutor",
      "outputs": [],
      "stateMutability": "nonpayable",
      "type": "function"
    },
    {
      "inputs": [
        {
          "components": [
            {
              "internalType": "address",
              "name": "vault",
              "type": "address"
            },
            {
              "internalType": "address",
              "name": "baseToken",
              "type": "address"
            },
            {
              "internalType": "address",
              "name": "orderToken",
              "type": "address"
            },
            {
              "internalType": "enum Types.Period",
              "name": "period",
              "type": "uint8"
            },
            {
              "internalType": "uint256",
              "name": "baseTokenScalingFactor",
              "type": "uint256"
            }
          ],
          "internalType": "struct Types.DCAPoolParameters",
          "name": "parameters",
          "type": "tuple"
        }
      ],
      "name": "addPool",
      "outputs": [],
      "stateMutability": "nonpayable",
      "type": "function"
    },
    {
      "inputs": [
        {
          "internalType": "address",
          "name": "newRegistrar",
          "type": "address"
        }
      ],
      "name": "addRegistrar",
      "outputs": [],
      "stateMutability": "nonpayable",
      "type": "function"
    },
    {
      "inputs": [
        {
          "internalType": "address",
          "name": "newScheduler",
          "type": "address"
        }
      ],
      "name": "addScheduler",
      "outputs": [],
      "stateMutability": "nonpayable",
      "type": "function"
    },
    {
      "inputs": [
        {
          "internalType": "address",
          "name": "newVault",
          "type": "address"
        }
      ],
      "name": "addVault",
      "outputs": [],
      "stateMutability": "nonpayable",
      "type": "function"
    },
    {
      "inputs": [
        {
          "internalType": "address",
          "name": "vaultAddress",
          "type": "address"
        },
        {
          "internalType": "uint256",
          "name": "previousQty",
          "type": "uint256"
        },
        {
          "internalType": "uint256",
          "name": "previousEndCycle",
          "type": "uint256"
        },
        {
          "internalType": "uint256",
          "name": "newQty",
          "type": "uint256"
        },
        {
          "internalType": "uint256",
          "name": "newEndCycle",
          "type": "uint256"
        }
      ],
      "name": "editSchedule",
      "outputs": [],
      "stateMutability": "nonpayable",
      "type": "function"
    },
    {
      "inputs": [
        {
          "internalType": "address",
          "name": "vaultAddress",
          "type": "address"
        }
      ],
      "name": "evaluate",
      "outputs": [],
      "stateMutability": "nonpayable",
      "type": "function"
    },
    {
      "inputs": [
        {
          "internalType": "bytes32",
          "name": "role",
          "type": "bytes32"
        }
      ],
      "name": "getRoleAdmin",
      "outputs": [
        {
          "internalType": "bytes32",
          "name": "",
          "type": "bytes32"
        }
      ],
      "stateMutability": "view",
      "type": "function"
    },
    {
      "inputs": [
        {
          "internalType": "bytes32",
          "name": "role",
          "type": "bytes32"
        },
        {
          "internalType": "uint256",
          "name": "index",
          "type": "uint256"
        }
      ],
      "name": "getRoleMember",
      "outputs": [
        {
          "internalType": "address",
          "name": "",
          "type": "address"
        }
      ],
      "stateMutability": "view",
      "type": "function"
    },
    {
      "inputs": [
        {
          "internalType": "bytes32",
          "name": "role",
          "type": "bytes32"
        }
      ],
      "name": "getRoleMemberCount",
      "outputs": [
        {
          "internalType": "uint256",
          "name": "",
          "type": "uint256"
        }
      ],
      "stateMutability": "view",
      "type": "function"
    },
    {
      "inputs": [
        {
          "internalType": "address",
          "name": "vaultAddress",
          "type": "address"
        }
      ],
      "name": "getSchedule",
      "outputs": [
        {
          "internalType": "uint256[256]",
          "name": "",
          "type": "uint256[256]"
        }
      ],
      "stateMutability": "view",
      "type": "function"
    },
    {
      "inputs": [
        {
          "internalType": "bytes32",
          "name": "role",
          "type": "bytes32"
        },
        {
          "internalType": "address",
          "name": "account",
          "type": "address"
        }
      ],
      "name": "grantRole",
      "outputs": [],
      "stateMutability": "nonpayable",
      "type": "function"
    },
    {
      "inputs": [
        {
          "internalType": "bytes32",
          "name": "role",
          "type": "bytes32"
        },
        {
          "internalType": "address",
          "name": "account",
          "type": "address"
        }
      ],
      "name": "hasRole",
      "outputs": [
        {
          "internalType": "bool",
          "name": "",
          "type": "bool"
        }
      ],
      "stateMutability": "view",
      "type": "function"
    },
    {
      "inputs": [],
      "name": "maxCycles",
      "outputs": [
        {
          "internalType": "uint16",
          "name": "",
          "type": "uint16"
        }
      ],
      "stateMutability": "pure",
      "type": "function"
    },
    {
      "inputs": [
        {
          "internalType": "address",
          "name": "",
          "type": "address"
        }
      ],
      "name": "poolsByVault",
      "outputs": [
        {
          "internalType": "enum Types.Period",
          "name": "period",
          "type": "uint8"
        },
        {
          "internalType": "uint32",
          "name": "periodInSeconds",
          "type": "uint32"
        },
        {
          "internalType": "contract IERC20",
          "name": "baseToken",
          "type": "address"
        },
        {
          "internalType": "contract IERC20",
          "name": "orderToken",
          "type": "address"
        },
        {
          "internalType": "address",
          "name": "vault",
          "type": "address"
        },
        {
          "components": [
            {
              "internalType": "uint64[256]",
              "name": "slots",
              "type": "uint64[256]"
            },
            {
              "internalType": "uint32",
              "name": "nextVirtualIndex",
              "type": "uint32"
            },
            {
              "internalType": "uint256",
              "name": "scalingFactor",
              "type": "uint256"
            }
          ],
          "internalType": "struct SlidingWindow.CompressedCircularBuffer",
          "name": "schedule",
          "type": "tuple"
        },
        {
          "internalType": "uint256",
          "name": "nextTargetTimestamp",
          "type": "uint256"
        },
        {
          "internalType": "uint256",
          "name": "minTotalSellQty",
          "type": "uint256"
        }
      ],
      "stateMutability": "view",
      "type": "function"
    },
    {
      "inputs": [
        {
          "internalType": "address",
          "name": "vaultAddress",
          "type": "address"
        }
      ],
      "name": "ready",
      "outputs": [
        {
          "internalType": "bool",
          "name": "",
          "type": "bool"
        }
      ],
      "stateMutability": "view",
      "type": "function"
    },
    {
      "inputs": [
        {
          "internalType": "address",
          "name": "admin",
          "type": "address"
        }
      ],
      "name": "removeAdmin",
      "outputs": [],
      "stateMutability": "nonpayable",
      "type": "function"
    },
    {
      "inputs": [
        {
          "internalType": "address",
          "name": "executor",
          "type": "address"
        }
      ],
      "name": "removeExecutor",
      "outputs": [],
      "stateMutability": "nonpayable",
      "type": "function"
    },
    {
      "inputs": [
        {
          "internalType": "address",
          "name": "registrar",
          "type": "address"
        }
      ],
      "name": "removeRegistrar",
      "outputs": [],
      "stateMutability": "nonpayable",
      "type": "function"
    },
    {
      "inputs": [
        {
          "internalType": "address",
          "name": "scheduler",
          "type": "address"
        }
      ],
      "name": "removeScheduler",
      "outputs": [],
      "stateMutability": "nonpayable",
      "type": "function"
    },
    {
      "inputs": [
        {
          "internalType": "address",
          "name": "vault",
          "type": "address"
        }
      ],
      "name": "removeVault",
      "outputs": [],
      "stateMutability": "nonpayable",
      "type": "function"
    },
    {
      "inputs": [
        {
          "internalType": "bytes32",
          "name": "role",
          "type": "bytes32"
        },
        {
          "internalType": "address",
          "name": "account",
          "type": "address"
        }
      ],
      "name": "renounceRole",
      "outputs": [],
      "stateMutability": "nonpayable",
      "type": "function"
    },
    {
      "inputs": [
        {
          "internalType": "bytes32",
          "name": "role",
          "type": "bytes32"
        },
        {
          "internalType": "address",
          "name": "account",
          "type": "address"
        }
      ],
      "name": "revokeRole",
      "outputs": [],
      "stateMutability": "nonpayable",
      "type": "function"
    },
    {
      "inputs": [
        {
          "internalType": "contract IMatchingEngine",
          "name": "matchingEngine",
          "type": "address"
        }
      ],
      "name": "setMatchingEngine",
      "outputs": [],
      "stateMutability": "nonpayable",
      "type": "function"
    },
    {
      "inputs": [
        {
          "internalType": "address",
          "name": "vault",
          "type": "address"
        },
        {
          "internalType": "uint256",
          "name": "_minTotalSellQty",
          "type": "uint256"
        }
      ],
      "name": "setMinTotalSellQty",
      "outputs": [],
      "stateMutability": "nonpayable",
      "type": "function"
    },
    {
      "inputs": [
        {
          "internalType": "address payable",
          "name": "timelock",
          "type": "address"
        }
      ],
      "name": "setTimelock",
      "outputs": [],
      "stateMutability": "nonpayable",
      "type": "function"
    },
    {
      "stateMutability": "payable",
      "type": "receive"
    }
  ],
  "bytecode": "0x60806040526001805460ff191690553480156200001b57600080fd5b5060405162002a3538038062002a358339810160408190526200003e9162000348565b6200005460006200004e62000212565b62000216565b600260209081527fe90b7bceb6e7df5418fb78d8ee546e97c83a08bbccc01a0644d599ccd2a7c2e08054610e1063ffffffff19918216179091557f679795a0195a1b76cdebb7c51d74e058aee92919b8c3389af86ef24535e8a28c80548216620151801790557f88601476d11616a71c5be67555bd1dff4b1cbf21533d2669b768b61518cfe1c3805462093a809083161790557fee60d0579bcffd98e668647d59fec1ff86a7fb340ce572e844f234ae73a6918f80548216621275001790557fb98b78633099fa36ed8b8680c4f8092689e1e04080eb9cbb077ca38a14d7e384805462278d0090831617905560066000527f59dd4b18488d12f51eda69757a0ed42a2010c14b564330cc74a06895e60c077b80549091166276a70017905562000191906001600160a01b03841690620015ec62000226821b17901c565b8015620001b85750620001b8816001600160a01b03166200022660201b620015ec1760201c565b620001e05760405162461bcd60e51b8152600401620001d7906200037f565b60405180910390fd5b600580546001600160a01b039384166001600160a01b03199182161790915560048054929093169116179055620003b6565b3390565b62000222828262000230565b5050565b803b15155b919050565b60008281526020818152604090912062000255918390620015f2620002a9821b17901c565b1562000222576200026562000212565b6001600160a01b0316816001600160a01b0316837f2f8788117e7eff1d82e926ec794901d17c78024a50270940304540a733656f0d60405160405180910390a45050565b6000620002c0836001600160a01b038416620002c9565b90505b92915050565b6000620002d7838362000318565b6200030f57508154600181810184556000848152602080822090930184905584548482528286019093526040902091909155620002c3565b506000620002c3565b60009081526001919091016020526040902054151590565b80516001600160a01b03811681146200022b57600080fd5b600080604083850312156200035b578182fd5b620003668362000330565b9150620003766020840162000330565b90509250929050565b60208082526018908201527f4443415f5343484544554c45523a494e49545f4552524f520000000000000000604082015260600190565b61266f80620003c66000396000f3fe6080604052600436106101f25760003560e01c806391d148541161010d578063ca15c873116100a0578063d547741f1161006f578063d547741f146105a7578063f0d6c2ef146105c7578063f288a2e2146105e7578063f68e9553146105fc578063f721fb2414610611576101f9565b8063ca15c8731461051a578063caa574661461053a578063ceb68c231461055a578063d39fee341461057a576101f9565b8063ba64434f116100dc578063ba64434f14610486578063ba904eed146104a6578063bdacb303146104c6578063c244c20a146104e6576101f9565b806391d148541461040f57806398c4f1ac1461043c578063a217fddf14610451578063af92a69314610466576101f9565b80632f2ff15d1161018557806355ece2b81161015457806355ece2b81461038d5780635c8ab63d146103ad57806370480275146103c25780639010d07c146103e2576101f9565b80632f2ff15d1461030b578063306b10221461032b57806336568abe1461034b578063376805211461036b576101f9565b80631f5a0bbe116101c15780631f5a0bbe1461028b57806324788429146102ab578063248a9ca3146102cb578063256b5a02146102eb576101f9565b806307bd0265146101fe57806316dc8c04146102295780631785f53c1461024b5780631e69fa8b1461026b576101f9565b366101f957005b600080fd5b34801561020a57600080fd5b50610213610631565b60405161022091906122ee565b60405180910390f35b34801561023557600080fd5b50610249610244366004612062565b610643565b005b34801561025757600080fd5b50610249610266366004612062565b6106fd565b34801561027757600080fd5b506102496102863660046121a9565b610708565b34801561029757600080fd5b506102496102a6366004612062565b6108e7565b3480156102b757600080fd5b506102496102c6366004612062565b6108ff565b3480156102d757600080fd5b506102136102e6366004612122565b610917565b3480156102f757600080fd5b50610249610306366004612062565b61092f565b34801561031757600080fd5b5061024961032636600461213a565b610943565b34801561033757600080fd5b50610249610346366004612062565b6109a6565b34801561035757600080fd5b5061024961036636600461213a565b610a54565b34801561037757600080fd5b50610380610ab5565b60405161022091906124b0565b34801561039957600080fd5b506102496103a836600461209a565b610abb565b3480156103b957600080fd5b50610213610b3e565b3480156103ce57600080fd5b506102496103dd366004612062565b610b62565b3480156103ee57600080fd5b506104026103fd366004612169565b610b6d565b6040516102209190612230565b34801561041b57600080fd5b5061042f61042a36600461213a565b610b8e565b60405161022091906122e3565b34801561044857600080fd5b50610213610ba6565b34801561045d57600080fd5b50610213610bb8565b34801561047257600080fd5b50610249610481366004612062565b610bbd565b34801561049257600080fd5b506102496104a13660046120c5565b610be7565b3480156104b257600080fd5b506102496104c1366004612062565b610c7d565b3480156104d257600080fd5b506102496104e1366004612062565b610ca7565b3480156104f257600080fd5b50610506610501366004612062565b610de7565b6040516102209897969594939291906122f7565b34801561052657600080fd5b50610213610535366004612122565b610ec8565b34801561054657600080fd5b50610249610555366004612062565b610edf565b34801561056657600080fd5b50610249610575366004612062565b610fb3565b34801561058657600080fd5b5061059a610595366004612062565b610fcb565b60405161022091906122b0565b3480156105b357600080fd5b506102496105c236600461213a565b610ff8565b3480156105d357600080fd5b5061042f6105e2366004612062565b611051565b3480156105f357600080fd5b506102136110a5565b34801561060857600080fd5b506102136110b7565b34801561061d57600080fd5b5061024961062c366004612062565b6110db565b6000805160206125eb83398151915281565b61065d60008051602061253483398151915261042a611607565b8061067e575060015460ff1615801561067e575061067e600061042a611607565b604051806040016040528060118152602001701110d04e9050d0d154d4d7d11153925151607a1b815250906106cf5760405162461bcd60e51b81526004016106c6919061239e565b60405180910390fd5b506106fa7f2c0e86ef42968f843b5fc3a6f6d421401da96923e1a6a2299b016956535a3b8282610ff8565b50565b6106fa600082610ff8565b6107226000805160206125cb83398151915261042a611607565b604051806040016040528060118152602001701110d04e9050d0d154d4d7d11153925151607a1b8152509061076a5760405162461bcd60e51b81526004016106c6919061239e565b50600060038161077d6020850185612062565b6001600160a01b03166001600160a01b0316815260200190815260200160002090506107ab8160030161160b565b6108e3576107bf6040830160208401612062565b81546001600160a01b0391909116650100000000000265010000000000600160c81b03199091161781556107f96060830160408401612062565b6001820180546001600160a01b0319166001600160a01b03929092169190911790556002600061082f608085016060860161218a565b600681111561083a57fe5b600681111561084557fe5b8152602081019190915260400160002054815463ffffffff9091166101000264ffffffff0019909116178155610881608083016060840161218a565b8154829060ff1916600183600681111561089757fe5b02179055504260458201556108b360038201608084013561161a565b6108c06020830183612062565b6002820180546001600160a01b0319166001600160a01b03929092169190911790555b5050565b6106fa6000805160206125eb83398151915282610943565b6106fa6000805160206125eb83398151915282610ff8565b6000818152602081905260409020600201545b919050565b6106fa6000805160206125cb833981519152825b6000828152602081905260409020600201546109619061042a611607565b61099c5760405162461bcd60e51b815260040180806020018281038252602f815260200180612505602f913960400191505060405180910390fd5b6108e382826116df565b6109c060008051602061253483398151915261042a611607565b806109e1575060015460ff161580156109e157506109e1600061042a611607565b604051806040016040528060118152602001701110d04e9050d0d154d4d7d11153925151607a1b81525090610a295760405162461bcd60e51b81526004016106c6919061239e565b506106fa7f2c0e86ef42968f843b5fc3a6f6d421401da96923e1a6a2299b016956535a3b8282610943565b610a5c611607565b6001600160a01b0316816001600160a01b031614610aab5760405162461bcd60e51b815260040180806020018281038252602f81526020018061260b602f913960400191505060405180910390fd5b6108e38282611748565b61010090565b610ac8600061042a611607565b604051806040016040528060118152602001701110d04e9050d0d154d4d7d11153925151607a1b81525090610b105760405162461bcd60e51b81526004016106c6919061239e565b506001600160a01b0382166000908152600360205260409020610b346001836117b1565b6046909101555050565b7f2c0e86ef42968f843b5fc3a6f6d421401da96923e1a6a2299b016956535a3b8281565b6106fa600082610943565b6000828152602081905260408120610b8590836117c8565b90505b92915050565b6000828152602081905260408120610b8590836117d4565b6000805160206125cb83398151915281565b600081565b6106fa7fedcc084d3dcd65a1f7f23c65c46722faca6953d28e43150a467cf43e5c30923882610943565b610c016000805160206125cb83398151915261042a611607565b604051806040016040528060118152602001701110d04e9050d0d154d4d7d11153925151607a1b81525090610c495760405162461bcd60e51b81526004016106c6919061239e565b506001600160a01b038516600090815260036020819052604090912090610c75908201868686866117e9565b505050505050565b6106fa7fedcc084d3dcd65a1f7f23c65c46722faca6953d28e43150a467cf43e5c30923882610ff8565b610cc160008051602061253483398151915261042a611607565b80610ce2575060015460ff16158015610ce25750610ce2600061042a611607565b604051806040016040528060118152602001701110d04e9050d0d154d4d7d11153925151607a1b81525090610d2a5760405162461bcd60e51b81526004016106c6919061239e565b50806001600160a01b03166340dbf5576040518163ffffffff1660e01b815260040160206040518083038186803b158015610d6457600080fd5b505afa158015610d78573d6000803e3d6000fd5b505050506040513d601f19601f82011682018060405250810190610d9c9190612108565b610db85760405162461bcd60e51b81526004016106c6906123f1565b6001805460ff191681179055610dcf600082610943565b6106fa60008051602061253483398151915282610943565b6003602081905260009182526040808320805460018201546002830154845161206081019586905260ff84169761010080860463ffffffff1698650100000000009096046001600160a01b0390811698958116979416959394929385019284926060840192859290918390855b82829054906101000a90046001600160401b03166001600160401b031681526020019060080190602082600701049283019260010382029150808411610e545750505092845250505060408281015463ffffffff166020830152604190920154910152604582015460469092015490919088565b6000818152602081905260408120610b8890611916565b610ef960008051602061253483398151915261042a611607565b80610f1a575060015460ff16158015610f1a5750610f1a600061042a611607565b604051806040016040528060118152602001701110d04e9050d0d154d4d7d11153925151607a1b81525090610f625760405162461bcd60e51b81526004016106c6919061239e565b50610f75816001600160a01b03166115ec565b610f915760405162461bcd60e51b81526004016106c69061241e565b600480546001600160a01b0319166001600160a01b0392909216919091179055565b6106fa6000805160206125cb83398151915282610ff8565b610fd3612032565b6001600160a01b0382166000908152600360208190526040909120610b889101611921565b6000828152602081905260409020600201546110169061042a611607565b610aab5760405162461bcd60e51b81526004018080602001828103825260308152602001806125546030913960400191505060405180910390fd5b6001600160a01b038116600090815260036020526040812060458101544210801590611084575061108481600301611997565b801561109e5750806046015461109c826003016119d9565b115b9392505050565b60008051602061253483398151915281565b7fedcc084d3dcd65a1f7f23c65c46722faca6953d28e43150a467cf43e5c30923881565b6110f56000805160206125eb83398151915261042a611607565b604051806040016040528060118152602001701110d04e9050d0d154d4d7d11153925151607a1b8152509061113d5760405162461bcd60e51b81526004016106c6919061239e565b5060005a905061114c82611051565b156108e3576001600160a01b03808316600090815260036020819052604080832080546001820154600554935163cb15894960e01b8152929665010000000000830481169691811695919491938593929091169163cb158949916111ba9188918a9160ff1690600401612244565b602060405180830381600087803b1580156111d457600080fd5b505af11580156111e8573d6000803e3d6000fd5b505050506040513d601f19601f8201168201806040525081019061120c919061207e565b6001600160a01b031681526020810191909152604001600090812091508690611237600387016119d9565b6004805460405163080d7c4d60e01b81529293506001600160a01b038086169363080d7c4d9361126d9390921691869101612269565b600060405180830381600087803b15801561128757600080fd5b505af115801561129b573d6000803e3d6000fd5b5050506002840154600091506001600160a01b03168080158015906112c757506112c786600301611997565b156113515760028601546001600160a01b031691506112e8600387016119d9565b6004805460405163080d7c4d60e01b81529295506001600160a01b038085169363080d7c4d9361131e9390921691889101612269565b600060405180830381600087803b15801561133857600080fd5b505af115801561134c573d6000803e3d6000fd5b505050505b600480546040805160e0810182526001600160a01b038c811682528b811660208301528f81168284015286811660608301526080820189905260a0820188905260c082018f9052915163697ac5f960e11b8152919092169263d2f58bf2926113bb92909101612455565b608060405180830381600087803b1580156113d557600080fd5b505af1925050508015611405575060408051601f3d908101601f19168201909252611402918101906121c0565b60015b611426575050504261012c01604590960195909555506106fa945050505050565b6040810151606082015115611511576114408160026119fb565b60208301518351604051635d7d8b5160e01b81529293506001600160a01b03861692635d7d8b51926114769290916004016124bf565b600060405180830381600087803b15801561149057600080fd5b505af11580156114a4573d6000803e3d6000fd5b505050506114b488600301611a3d565b508754610100900463ffffffff16420160458901819055602083015183516040517f786ee7797759abbe9d80ed330446b23af28fa59e277086805328c3ff3c66696793611508938893909290918791612282565b60405180910390a15b81516020830151604051635d7d8b5160e01b81526001600160a01b038a1692635d7d8b5192611542926004016124bf565b600060405180830381600087803b15801561155c57600080fd5b505af1158015611570573d6000803e3d6000fd5b505050506115808b600301611a3d565b508a54610100900463ffffffff16420160458c01819055825160208401516040517f786ee7797759abbe9d80ed330446b23af28fa59e277086805328c3ff3c666967936115d4938c93909290918791612282565b60405180910390a150505b5050505050505050505050565b3b151590565b6000610b85836001600160a01b038416611b14565b3390565b6040015463ffffffff16151590565b604082015463ffffffff1615611669576040805162461bcd60e51b815260206004820152600f60248201526e14d5ce9053149150511657d2539255608a1b604482015290519081900360640190fd5b60408201805463ffffffff191660011790556041820181905560005b6101008110156116da5760018382610100811061169e57fe5b600491828204019190066008026101000a8154816001600160401b0302191690836001600160401b031602179055508080600101915050611685565b505050565b60008281526020819052604090206116f790826115f2565b156108e357611704611607565b6001600160a01b0316816001600160a01b0316837f2f8788117e7eff1d82e926ec794901d17c78024a50270940304540a733656f0d60405160405180910390a45050565b60008281526020819052604090206117609082611b5e565b156108e35761176d611607565b6001600160a01b0316816001600160a01b0316837ff6391f5c32d9c69d2a47ea670b442974b53935d1edc7fd64eb21e047a839171b60405160405180910390a45050565b6000818310156117c15781610b85565b5090919050565b6000610b858383611b73565b6000610b85836001600160a01b038416611bd7565b60006117f582856117b1565b604187015460408801549192509063ffffffff9081169061010082011683111561185f576040805162461bcd60e51b815260206004820152601660248201527553573a57524954455f4f55545f4f465f424f554e445360501b604482015290519081900360640190fd5b600061186b8684611bef565b6001600160401b0316905060006118828985611bef565b6001600160401b03169050825b858163ffffffff1610156115df5760006118a98c83611c5f565b6001600160401b03169050878263ffffffff161080156118c95750600089115b156118db576118d88185611c6e565b90505b898263ffffffff161080156118f0575060008b115b15611902576118ff8184611cc8565b90505b61190d8c8383611d0a565b5060010161188f565b6000610b8882611d5c565b611929612032565b6040820154604183015460ff90911690815b63ffffffff61010084018116908216101561198f5761196d8261195e8784611c5f565b6001600160401b031690611d60565b8484830363ffffffff16610100811061198257fe5b602002015260010161193b565b505050919050565b6040810154600090600190839060ff1661010081106119b257fe5b60048104919091015460039091166008026101000a90046001600160401b03161192915050565b60418101546040820154600091610b889161195e90859063ffffffff16611c5f565b6000610b8583836040518060400160405280601a81526020017f536166654d6174683a206469766973696f6e206279207a65726f000000000000815250611d75565b6040810154604182015460009160ff1690611a5c9061195e8584611e17565b915081611aa8576040805162461bcd60e51b815260206004820152601560248201527453573a524541445f4f55545f4f465f424f554e445360581b604482015290519081900360640190fd5b60018363ffffffff83166101008110611abd57fe5b6004810490910180546001600160401b0393841660086003909416939093026101000a9283029390920219909116919091179055506040909101805463ffffffff8082166001011663ffffffff1990911617905590565b6000611b208383611bd7565b611b5657508154600181810184556000848152602080822090930184905584548482528286019093526040902091909155610b88565b506000610b88565b6000610b85836001600160a01b038416611e6c565b81546000908210611bb55760405162461bcd60e51b81526004018080602001828103825260228152602001806124e36022913960400191505060405180910390fd5b826000018281548110611bc457fe5b9060005260206000200154905092915050565b60009081526001919091016020526040902054151590565b6000611c03611bfe84846119fb565b611f32565b90506000816001600160401b03161180611c1b575082155b610b88576040805162461bcd60e51b815260206004820152601060248201526f53573a5154595f554e444552464c4f5760801b604482015290519081900360640190fd5b6000610b858360ff8416611e17565b600082820183811015610b85576040805162461bcd60e51b815260206004820152601b60248201527f536166654d6174683a206164646974696f6e206f766572666c6f770000000000604482015290519081900360640190fd5b6000610b8583836040518060400160405280601e81526020017f536166654d6174683a207375627472616374696f6e206f766572666c6f770000815250611f7f565b611d18611bfe826001611c6e565b8360ff84166101008110611d2857fe5b600491828204019190066008026101000a8154816001600160401b0302191690836001600160401b03160217905550505050565b5490565b6000610b85826001600160401b038516611fd9565b60008183611e015760405162461bcd60e51b81526004018080602001828103825283818151815260200191508051906020019080838360005b83811015611dc6578181015183820152602001611dae565b50505050905090810190601f168015611df35780820380516001836020036101000a031916815260200191505b509250505060405180910390fd5b506000838581611e0d57fe5b0495945050505050565b6000808363ffffffff84166101008110611e2d57fe5b60048104919091015460039091166008026101000a90046001600160401b031690506001811115611e615760018103611e64565b60005b949350505050565b60008181526001830160205260408120548015611f285783546000198083019190810190600090879083908110611e9f57fe5b9060005260206000200154905080876000018481548110611ebc57fe5b600091825260208083209091019290925582815260018981019092526040902090840190558654879080611eec57fe5b60019003818190600052602060002001600090559055866001016000878152602001908152602001600020600090556001945050505050610b88565b6000915050610b88565b6000680100000000000000008210611f7b5760405162461bcd60e51b81526004018080602001828103825260268152602001806125a56026913960400191505060405180910390fd5b5090565b60008184841115611fd15760405162461bcd60e51b8152602060048201818152835160248401528351909283926044909101919085019080838360008315611dc6578181015183820152602001611dae565b505050900390565b600082611fe857506000610b88565b82820282848281611ff557fe5b0414610b855760405162461bcd60e51b81526004018080602001828103825260218152602001806125846021913960400191505060405180910390fd5b604051806120000160405280610100906020820280368337509192915050565b8051801515811461092a57600080fd5b600060208284031215612073578081fd5b8135610b85816124cd565b60006020828403121561208f578081fd5b8151610b85816124cd565b600080604083850312156120ac578081fd5b82356120b7816124cd565b946020939093013593505050565b600080600080600060a086880312156120dc578081fd5b85356120e7816124cd565b97602087013597506040870135966060810135965060800135945092505050565b600060208284031215612119578081fd5b610b8582612052565b600060208284031215612133578081fd5b5035919050565b6000806040838503121561214c578182fd5b82359150602083013561215e816124cd565b809150509250929050565b6000806040838503121561217b578182fd5b50508035926020909101359150565b60006020828403121561219b578081fd5b813560078110610b85578182fd5b600060a082840312156121ba578081fd5b50919050565b6000608082840312156121d1578081fd5b604051608081018181106001600160401b03821117156121ed57fe5b806040525082518152602083015160208201526040830151604082015261221660608401612052565b60608201529392505050565b6007811061222c57fe5b9052565b6001600160a01b0391909116815260200190565b6001600160a01b0384811682528316602082015260608101611e646040830184612222565b6001600160a01b03929092168252602082015260400190565b6001600160a01b03959095168552602085019390935260408401919091526060830152608082015260a00190565b6120008101818360005b6101008110156122da5781518352602092830192909101906001016122ba565b50505092915050565b901515815260200190565b90815260200190565b6121208101612306828b612222565b63ffffffff8981166020848101919091526001600160a01b038a811660408601528981166060860152881660808501528651909190600060a086015b61010082101561236b5782516001600160401b0316815291840191600191909101908401612342565b50505090860151166120a08301526040909401516120c08201526120e08101929092526121009091015295945050505050565b6000602080835283518082850152825b818110156123ca578581018301518582016040015282016123ae565b818111156123db5783604083870101525b50601f01601f1916929092016040019392505050565b6020808252601390820152724443413a494c4c4547414c5f4144445245535360681b604082015260600190565b6020808252601a908201527f4443415f5343484544554c45523a494e56414c49445f44415441000000000000604082015260600190565b81516001600160a01b039081168252602080840151821690830152604080840151821690830152606080840151909116908201526080808301519082015260a0828101519082015260c0918201519181019190915260e00190565b61ffff91909116815260200190565b918252602082015260400190565b6001600160a01b03811681146106fa57600080fdfe456e756d657261626c655365743a20696e646578206f7574206f6620626f756e6473416363657373436f6e74726f6c3a2073656e646572206d75737420626520616e2061646d696e20746f206772616e74f66846415d2bf9eabda9e84793ff9c0ea96d87f50fc41e66aa16469c6a442f05416363657373436f6e74726f6c3a2073656e646572206d75737420626520616e2061646d696e20746f207265766f6b65536166654d6174683a206d756c7469706c69636174696f6e206f766572666c6f7753616665436173743a2076616c756520646f65736e27742066697420696e203634206269747331e0210044b4f6757ce6aa31f9c6e8d4896d24a755014887391a926c5224d959d8aa0f3194971a2a116679f7c2090f6939c8d4e01a2a8d7e41d55e5351469e63416363657373436f6e74726f6c3a2063616e206f6e6c792072656e6f756e636520726f6c657320666f722073656c66a2646970667358221220c9541a924cada8329523228ae534098fc6563b118fbb73c3bcee3864d21e1dd964736f6c63430007040033",
  "linkReferences": {},
  "deployedLinkReferences": {}
}